{
  "contractName": "EthSwap",
  "abi": [
    {
      "inputs": [
        {
          "internalType": "contract ApeCoin",
          "name": "_token",
          "type": "address"
        }
      ],
      "stateMutability": "nonpayable",
      "type": "constructor"
    },
    {
      "anonymous": false,
      "inputs": [
        {
          "indexed": false,
          "internalType": "address",
          "name": "account",
          "type": "address"
        },
        {
          "indexed": false,
          "internalType": "address",
          "name": "token",
          "type": "address"
        },
        {
          "indexed": false,
          "internalType": "uint256",
          "name": "tokenAmount",
          "type": "uint256"
        },
        {
          "indexed": false,
          "internalType": "uint256",
          "name": "rate",
          "type": "uint256"
        }
      ],
      "name": "TokenPurchased",
      "type": "event"
    },
    {
      "anonymous": false,
      "inputs": [
        {
          "indexed": false,
          "internalType": "address",
          "name": "account",
          "type": "address"
        },
        {
          "indexed": false,
          "internalType": "address",
          "name": "token",
          "type": "address"
        },
        {
          "indexed": false,
          "internalType": "uint256",
          "name": "tokenAmount",
          "type": "uint256"
        },
        {
          "indexed": false,
          "internalType": "uint256",
          "name": "rate",
          "type": "uint256"
        }
      ],
      "name": "TokenSold",
      "type": "event"
    },
    {
      "inputs": [],
      "name": "name",
      "outputs": [
        {
          "internalType": "string",
          "name": "",
          "type": "string"
        }
      ],
      "stateMutability": "view",
      "type": "function"
    },
    {
      "inputs": [],
      "name": "rate",
      "outputs": [
        {
          "internalType": "uint256",
          "name": "",
          "type": "uint256"
        }
      ],
      "stateMutability": "view",
      "type": "function"
    },
    {
      "inputs": [],
      "name": "token",
      "outputs": [
        {
          "internalType": "contract ApeCoin",
          "name": "",
          "type": "address"
        }
      ],
      "stateMutability": "view",
      "type": "function"
    },
    {
      "inputs": [],
      "name": "buyTokens",
      "outputs": [
        {
          "internalType": "bool",
          "name": "success",
          "type": "bool"
        }
      ],
      "stateMutability": "payable",
      "type": "function"
    },
    {
      "inputs": [
        {
          "internalType": "uint256",
          "name": "_amount",
          "type": "uint256"
        }
      ],
      "name": "sellTokens",
      "outputs": [
        {
          "internalType": "bool",
          "name": "success",
          "type": "bool"
        }
      ],
      "stateMutability": "nonpayable",
      "type": "function"
    }
  ],
  "bytecode": "0x60806040526040518060400160405280601881526020017f4574685377617020496e7374616e742045786368616e676500000000000000008152506000908051906020019062000051929190620000d2565b5060646002553480156200006457600080fd5b5060405162000d8a38038062000d8a83398181016040528101906200008a919062000200565b80600160006101000a81548173ffffffffffffffffffffffffffffffffffffffff021916908373ffffffffffffffffffffffffffffffffffffffff1602179055505062000296565b828054620000e09062000261565b90600052602060002090601f01602090048101928262000104576000855562000150565b82601f106200011f57805160ff191683800117855562000150565b8280016001018555821562000150579182015b828111156200014f57825182559160200191906001019062000132565b5b5090506200015f919062000163565b5090565b5b808211156200017e57600081600090555060010162000164565b5090565b600080fd5b600073ffffffffffffffffffffffffffffffffffffffff82169050919050565b6000620001b48262000187565b9050919050565b6000620001c882620001a7565b9050919050565b620001da81620001bb565b8114620001e657600080fd5b50565b600081519050620001fa81620001cf565b92915050565b60006020828403121562000219576200021862000182565b5b60006200022984828501620001e9565b91505092915050565b7f4e487b7100000000000000000000000000000000000000000000000000000000600052602260045260246000fd5b600060028204905060018216806200027a57607f821691505b60208210810362000290576200028f62000232565b5b50919050565b610ae480620002a66000396000f3fe60806040526004361061004a5760003560e01c806306fdde031461004f5780632c4e722e1461007a5780636c11bcd3146100a5578063d0febe4c146100e2578063fc0c546a14610100575b600080fd5b34801561005b57600080fd5b5061006461012b565b6040516100719190610665565b60405180910390f35b34801561008657600080fd5b5061008f6101b9565b60405161009c91906106a0565b60405180910390f35b3480156100b157600080fd5b506100cc60048036038101906100c791906106ec565b6101bf565b6040516100d99190610734565b60405180910390f35b6100ea6103e2565b6040516100f79190610734565b60405180910390f35b34801561010c57600080fd5b506101156105a6565b60405161012291906107ce565b60405180910390f35b6000805461013890610818565b80601f016020809104026020016040519081016040528092919081815260200182805461016490610818565b80156101b15780601f10610186576101008083540402835291602001916101b1565b820191906000526020600020905b81548152906001019060200180831161019457829003601f168201915b505050505081565b60025481565b600080600254836101d091906108a7565b905082600160009054906101000a900473ffffffffffffffffffffffffffffffffffffffff1673ffffffffffffffffffffffffffffffffffffffff166370a08231336040518263ffffffff1660e01b815260040161022e91906108f9565b602060405180830381865afa15801561024b573d6000803e3d6000fd5b505050506040513d601f19601f8201168201806040525081019061026f9190610929565b101561027a57600080fd5b8047101561028757600080fd5b6000339050600160009054906101000a900473ffffffffffffffffffffffffffffffffffffffff1673ffffffffffffffffffffffffffffffffffffffff166323b872dd3033876040518463ffffffff1660e01b81526004016102eb93929190610956565b6020604051808303816000875af115801561030a573d6000803e3d6000fd5b505050506040513d601f19601f8201168201806040525081019061032e91906109b9565b508073ffffffffffffffffffffffffffffffffffffffff166108fc839081150290604051600060405180830381858888f19350505050158015610375573d6000803e3d6000fd5b507fa8a7473f10e62cf9687e243de1c3ac8b3cbc3dd04b96826beb3a65b59538581433600160009054906101000a900473ffffffffffffffffffffffffffffffffffffffff16866002546040516103cf94939291906109e6565b60405180910390a1600192505050919050565b600080346002546103f39190610a2b565b905080600160009054906101000a900473ffffffffffffffffffffffffffffffffffffffff1673ffffffffffffffffffffffffffffffffffffffff166370a08231306040518263ffffffff1660e01b815260040161045191906108f9565b602060405180830381865afa15801561046e573d6000803e3d6000fd5b505050506040513d601f19601f820116820180604052508101906104929190610929565b1161049c57600080fd5b600160009054906101000a900473ffffffffffffffffffffffffffffffffffffffff1673ffffffffffffffffffffffffffffffffffffffff1663a9059cbb33836040518363ffffffff1660e01b81526004016104f9929190610a85565b6020604051808303816000875af1158015610518573d6000803e3d6000fd5b505050506040513d601f19601f8201168201806040525081019061053c91906109b9565b507f8daf503382665d950e449b86172be5222275c90f4ddf69c29fdaa8237a562a6d33600160009054906101000a900473ffffffffffffffffffffffffffffffffffffffff168360025460405161059694939291906109e6565b60405180910390a1600191505090565b600160009054906101000a900473ffffffffffffffffffffffffffffffffffffffff1681565b600081519050919050565b600082825260208201905092915050565b60005b838110156106065780820151818401526020810190506105eb565b83811115610615576000848401525b50505050565b6000601f19601f8301169050919050565b6000610637826105cc565b61064181856105d7565b93506106518185602086016105e8565b61065a8161061b565b840191505092915050565b6000602082019050818103600083015261067f818461062c565b905092915050565b6000819050919050565b61069a81610687565b82525050565b60006020820190506106b56000830184610691565b92915050565b600080fd5b6106c981610687565b81146106d457600080fd5b50565b6000813590506106e6816106c0565b92915050565b600060208284031215610702576107016106bb565b5b6000610710848285016106d7565b91505092915050565b60008115159050919050565b61072e81610719565b82525050565b60006020820190506107496000830184610725565b92915050565b600073ffffffffffffffffffffffffffffffffffffffff82169050919050565b6000819050919050565b600061079461078f61078a8461074f565b61076f565b61074f565b9050919050565b60006107a682610779565b9050919050565b60006107b88261079b565b9050919050565b6107c8816107ad565b82525050565b60006020820190506107e360008301846107bf565b92915050565b7f4e487b7100000000000000000000000000000000000000000000000000000000600052602260045260246000fd5b6000600282049050600182168061083057607f821691505b602082108103610843576108426107e9565b5b50919050565b7f4e487b7100000000000000000000000000000000000000000000000000000000600052601260045260246000fd5b7f4e487b7100000000000000000000000000000000000000000000000000000000600052601160045260246000fd5b60006108b282610687565b91506108bd83610687565b9250826108cd576108cc610849565b5b828204905092915050565b60006108e38261074f565b9050919050565b6108f3816108d8565b82525050565b600060208201905061090e60008301846108ea565b92915050565b600081519050610923816106c0565b92915050565b60006020828403121561093f5761093e6106bb565b5b600061094d84828501610914565b91505092915050565b600060608201905061096b60008301866108ea565b61097860208301856108ea565b6109856040830184610691565b949350505050565b61099681610719565b81146109a157600080fd5b50565b6000815190506109b38161098d565b92915050565b6000602082840312156109cf576109ce6106bb565b5b60006109dd848285016109a4565b91505092915050565b60006080820190506109fb60008301876108ea565b610a0860208301866108ea565b610a156040830185610691565b610a226060830184610691565b95945050505050565b6000610a3682610687565b9150610a4183610687565b9250817fffffffffffffffffffffffffffffffffffffffffffffffffffffffffffffffff0483118215151615610a7a57610a79610878565b5b828202905092915050565b6000604082019050610a9a60008301856108ea565b610aa76020830184610691565b939250505056fea2646970667358221220b254c40f7efc46423e2068731afbc06625f5fe8afc26d00ab828c1516c738b8364736f6c634300080d0033",
  "immutableReferences": {},
  "source": "// SPDX-License-Identifier: MIT\n// Tells the Solidity compiler to compile only from v0.8.13 to v0.9.0\npragma solidity ^0.8.13;\n\nimport \"./ApeCoin.sol\";\n\ncontract EthSwap {\n\n\n  string public name = \"EthSwap Instant Exchange\";\n  ApeCoin public token;\n  uint public rate = 100;\n\n  event TokenPurchased(\n    address account,\n    address token,\n    uint256 tokenAmount,\n    uint256 rate\n  );\n\n  event TokenSold(\n    address account,\n    address token,\n    uint256 tokenAmount,\n    uint256 rate\n  );\n\n  constructor(ApeCoin _token) {\n    token = _token;\n  }\n\n  function buyTokens() public payable returns (bool success) {\n    //1. \n    //2. \n    //3. \n    //4. \n\n    uint256 tokenAmount = rate * msg.value;\n    require(token.balanceOf(address(this)) > tokenAmount);\n    token.transfer(msg.sender, tokenAmount);\n    emit TokenPurchased(msg.sender, address(token), tokenAmount, rate);\n\n    return true;\n  }\n\n  function sellTokens(uint256 _amount) public returns (bool success) {\n    //1. \n    //2. \n    //3. \n    //4. \n    //5. \n    //6. \n\n    uint256 etherAmount = _amount / rate;\n    require(token.balanceOf(msg.sender) >= _amount);\n    require(address(this).balance >= etherAmount);\n\n    address payable seller = payable(msg.sender);\n    token.transferFrom(address(this), msg.sender, _amount);\n    seller.transfer(etherAmount);\n\n    emit TokenSold(msg.sender, address(token), _amount, rate);\n    return true;\n  }\n}\n\n",
  "sourcePath": "/home/ziang/code/truffle/03_EthSwap/contracts/EthSwap.sol",
  "compiler": {
    "name": "solc",
    "version": "0.8.13+commit.abaa5c0e.Emscripten.clang"
  },
  "schemaVersion": "3.4.10",
  "updatedAt": "2022-10-23T08:50:21.624Z",
  "devdoc": {
    "kind": "dev",
    "methods": {},
    "version": 1
  },
  "userdoc": {
    "kind": "user",
    "methods": {},
    "version": 1
  }
}